:107C00000C94343E0C94463E0C94463E0C94463EF6
:107C10000C94463E0C94463E0C94463E0C94463ED4
:107C20000C94463E0C94463E0C94463E0C94463EC4
:107C30000C94463E0C94463E0C94463E0C94463EB4
:107C40000C94463E0C94463E0C94463E0C94463EA4
:107C50000C94463E0C94463E0C94463E0C94463E94
:107C60000C94463E0C94463E11241FBECFEFD8E044
:107C7000DEBFCDBF21E0A0E0B1E001C01D92A2387F
:107C8000B207E1F70E94BD3E0C94AA3F0C94003E5F
:107C90001092C50087E08093C40088E18093C10002
:107CA00086E08093C20008959091C00095FFFCCFBC
:107CB0008093C60008958091C00087FFFCCF80911B
:107CC000C60008950E945B3E803219F085E10C9455
:107CD000543E0895EF92FF920F931F93CF93DF933B
:107CE00081152EE3920708F036C0A0E0B0E0880FBF
:107CF000991FAA1FBB1F8C0123E0FC012093570092
:107D0000E89507B600FCFDCFEB01FF24F394061BBA
:107D1000170B9E01261B370B2417350780F4F8013B
:107D2000EC0FFD1F298130E0322F2227E8802E2919
:107D30000901F0925700E89511242296EACF25E038
:107D4000FC0120935700E89507B600FCFDCF81E1C8
:107D500080935700E895DF91CF911F910F91FF908D
:107D6000EF90089598E088E10FB6F894A895809375
:107D700060000FBE90936000FFCF84B714BE83FFF6
:107D80000EC00FB6F894A89580916000886180932A
:107D90006000109260000FBEE0E0F0E009959EE008
:107DA00088E10FB6F894A895809360000FBE909379
:107DB00060000E94483E0E945B3E803509F4C6C0C8
:107DC00020F5813409F44BC078F4803309F0BEC04B
:107DD0000FB6F894A8958091600088618093600048
:107DE000109260000FBEB2C0823409F44FC08534D7
:107DF00009F0ACC00E945B3E0E945B3E0E945B3E6D
:107E00000E945B3E0E945B3EA1C0843609F444C0E0
:107E100098F4813509F490C0853509F097C00E9427
:107E20005B3EC82F0E945B3E2C2F30E0382B3093F6
:107E30000101209300018AC0843709F456C08537B8
:107E400009F084C00E94623E84E10E94543E8EE1AB
:107E50000E94543E85E90E94543E8FE011C00E946A
:107E60005B3EC82F0E94623E84E10E94543EC038AF
:107E700011F482E005C0C13811F481E001C080E056
:107E80000E94543E80E10E94543E95CFC4E10E947E
:107E90005B3EC150E1F75AC00E945B3EC82F0E9472
:107EA0005B3ED0E0DC2FCC27C82B0E945B3EF82E37
:107EB00002E011E0C801825091408C179D0730F418
:107EC0000E945B3EF80181938F01F4CF0E94623ED5
:107ED000F6E4FF123DC0AE0162E071E08091000166
:107EE000909101010E946A3E33C00E945B3E182FB0
:107EF0000E945B3EC82F0E945B3ED82F0E94623ECC
:107F000084E10E94543ED63409F0BCCFD0E0D12B9E
:107F100000E010E00C171D0709F4B4CFE091000158
:107F2000F0910101EE0FFF1FE00FF11F84910E94FD
:107F3000543E0F5F1F4FEECF0E94623E84E10E94CD
:107F4000543E80E10E94543E0E94B23E0E94623E36
:087F500084E196CFF894FFCF05
:0400000300007C007D
:00000001FF
